{
  "contractName": "Bebe",
  "abi": [
    {
      "constant": false,
      "inputs": [],
      "name": "renounceOwnership",
      "outputs": [],
      "payable": false,
      "stateMutability": "nonpayable",
      "type": "function"
    },
    {
      "constant": true,
      "inputs": [],
      "name": "owner",
      "outputs": [
        {
          "name": "",
          "type": "address"
        }
      ],
      "payable": false,
      "stateMutability": "view",
      "type": "function"
    },
    {
      "constant": true,
      "inputs": [],
      "name": "isOwner",
      "outputs": [
        {
          "name": "",
          "type": "bool"
        }
      ],
      "payable": false,
      "stateMutability": "view",
      "type": "function"
    },
    {
      "constant": false,
      "inputs": [
        {
          "name": "newOwner",
          "type": "address"
        }
      ],
      "name": "transferOwnership",
      "outputs": [],
      "payable": false,
      "stateMutability": "nonpayable",
      "type": "function"
    },
    {
      "anonymous": false,
      "inputs": [
        {
          "indexed": false,
          "name": "_maunfacturer",
          "type": "uint256"
        },
        {
          "indexed": false,
          "name": "_name",
          "type": "uint256"
        },
        {
          "indexed": false,
          "name": "_year",
          "type": "uint256"
        },
        {
          "indexed": false,
          "name": "_price",
          "type": "uint256"
        }
      ],
      "name": "SetRecord",
      "type": "event"
    },
    {
      "anonymous": false,
      "inputs": [
        {
          "indexed": true,
          "name": "previousOwner",
          "type": "address"
        },
        {
          "indexed": true,
          "name": "newOwner",
          "type": "address"
        }
      ],
      "name": "OwnershipTransferred",
      "type": "event"
    },
    {
      "constant": false,
      "inputs": [
        {
          "name": "_maunfacturer",
          "type": "uint256"
        },
        {
          "name": "_name",
          "type": "uint256"
        },
        {
          "name": "_year",
          "type": "uint256"
        },
        {
          "name": "_price",
          "type": "uint256"
        }
      ],
      "name": "setRecord",
      "outputs": [],
      "payable": false,
      "stateMutability": "nonpayable",
      "type": "function"
    },
    {
      "constant": true,
      "inputs": [
        {
          "name": "_maunfacturer",
          "type": "uint256"
        }
      ],
      "name": "getRecord",
      "outputs": [
        {
          "name": "",
          "type": "uint256[]"
        },
        {
          "name": "",
          "type": "uint256[]"
        },
        {
          "name": "",
          "type": "uint256[]"
        }
      ],
      "payable": false,
      "stateMutability": "view",
      "type": "function"
    },
    {
      "constant": true,
      "inputs": [],
      "name": "getAllRecord",
      "outputs": [
        {
          "name": "",
          "type": "uint256[]"
        },
        {
          "name": "",
          "type": "uint256[]"
        },
        {
          "name": "",
          "type": "uint256[]"
        }
      ],
      "payable": false,
      "stateMutability": "view",
      "type": "function"
    }
  ],
  "bytecode": "0x6080604052600061001d6100c0640100000000026401000000009004565b9050806000806101000a81548173ffffffffffffffffffffffffffffffffffffffff021916908373ffffffffffffffffffffffffffffffffffffffff1602179055508073ffffffffffffffffffffffffffffffffffffffff16600073ffffffffffffffffffffffffffffffffffffffff167f8be0079c531659141344cd1fd0a4f28419497f9722a3daafe3b4186f6b6457e060405160405180910390a3506100c8565b600033905090565b610c4d806100d76000396000f300608060405260043610610083576000357c0100000000000000000000000000000000000000000000000000000000900463ffffffff16806303e9e60914610088578063715018a61461019a5780638da5cb5b146101b15780638f32d59b14610208578063d5a9f00314610237578063df8e3b9d14610333578063f2fde38b1461037e575b600080fd5b34801561009457600080fd5b506100b3600480360381019080803590602001909291905050506103c1565b60405180806020018060200180602001848103845287818151815260200191508051906020019060200280838360005b838110156100fe5780820151818401526020810190506100e3565b50505050905001848103835286818151815260200191508051906020019060200280838360005b83811015610140578082015181840152602081019050610125565b50505050905001848103825285818151815260200191508051906020019060200280838360005b83811015610182578082015181840152602081019050610167565b50505050905001965050505050505060405180910390f35b3480156101a657600080fd5b506101af6105bc565b005b3480156101bd57600080fd5b506101c66106f7565b604051808273ffffffffffffffffffffffffffffffffffffffff1673ffffffffffffffffffffffffffffffffffffffff16815260200191505060405180910390f35b34801561021457600080fd5b5061021d610720565b604051808215151515815260200191505060405180910390f35b34801561024357600080fd5b5061024c61077e565b60405180806020018060200180602001848103845287818151815260200191508051906020019060200280838360005b8381101561029757808201518184015260208101905061027c565b50505050905001848103835286818151815260200191508051906020019060200280838360005b838110156102d95780820151818401526020810190506102be565b50505050905001848103825285818151815260200191508051906020019060200280838360005b8381101561031b578082015181840152602081019050610300565b50505050905001965050505050505060405180910390f35b34801561033f57600080fd5b5061037c60048036038101908080359060200190929190803590602001909291908035906020019092919080359060200190929190505050610916565b005b34801561038a57600080fd5b506103bf600480360381019080803573ffffffffffffffffffffffffffffffffffffffff169060200190929190505050610a08565b005b606080606080606080600080600160008a81526020019081526020016000205460405190808252806020026020018201604052801561040f5781602001602082028038833980820191505090505b509450600160008a8152602001908152602001600020546040519080825280602002602001820160405280156104545781602001602082028038833980820191505090505b509350600160008a8152602001908152602001600020546040519080825280602002602001820160405280156104995781602001602082028038833980820191505090505b50925060009150600090505b6002805490508110156105a757886002828154811015156104c257fe5b906000526020600020906004020160000154141561059a576002818154811015156104e957fe5b906000526020600020906004020160010154858381518110151561050957fe5b906020019060200201818152505060028181548110151561052657fe5b906000526020600020906004020160020154848381518110151561054657fe5b906020019060200201818152505060028181548110151561056357fe5b906000526020600020906004020160030154838381518110151561058357fe5b906020019060200201818152505081806001019250505b80806001019150506104a5565b84848497509750975050505050509193909250565b6105c4610720565b1515610638576040517f08c379a00000000000000000000000000000000000000000000000000000000081526004018080602001828103825260208152602001807f4f776e61626c653a2063616c6c6572206973206e6f7420746865206f776e657281525060200191505060405180910390fd5b600073ffffffffffffffffffffffffffffffffffffffff166000809054906101000a900473ffffffffffffffffffffffffffffffffffffffff1673ffffffffffffffffffffffffffffffffffffffff167f8be0079c531659141344cd1fd0a4f28419497f9722a3daafe3b4186f6b6457e060405160405180910390a360008060006101000a81548173ffffffffffffffffffffffffffffffffffffffff021916908373ffffffffffffffffffffffffffffffffffffffff160217905550565b60008060009054906101000a900473ffffffffffffffffffffffffffffffffffffffff16905090565b60008060009054906101000a900473ffffffffffffffffffffffffffffffffffffffff1673ffffffffffffffffffffffffffffffffffffffff16610762610a90565b73ffffffffffffffffffffffffffffffffffffffff1614905090565b60608060608060608060006002805490506040519080825280602002602001820160405280156107bd5781602001602082028038833980820191505090505b5093506002805490506040519080825280602002602001820160405280156107f45781602001602082028038833980820191505090505b50925060028054905060405190808252806020026020018201604052801561082b5781602001602082028038833980820191505090505b509150600090505b6002805490508110156109045760028181548110151561084f57fe5b906000526020600020906004020160010154848281518110151561086f57fe5b906020019060200201818152505060028181548110151561088c57fe5b90600052602060002090600402016002015483828151811015156108ac57fe5b90602001906020020181815250506002818154811015156108c957fe5b90600052602060002090600402016003015482828151811015156108e957fe5b90602001906020020181815250508080600101915050610833565b83838396509650965050505050909192565b7f7409a6647403b9e4cf45ada167ee30b6d23ce17b2fb6003cb415989ae64bd2f9848484846040518085815260200184815260200183815260200182815260200194505050505060405180910390a16002608060405190810160405280868152602001858152602001848152602001838152509080600181540180825580915050906001820390600052602060002090600402016000909192909190915060008201518160000155602082015181600101556040820151816002015560608201518160030155505050600160008581526020019081526020016000206000815480929190600101919050555050505050565b610a10610720565b1515610a84576040517f08c379a00000000000000000000000000000000000000000000000000000000081526004018080602001828103825260208152602001807f4f776e61626c653a2063616c6c6572206973206e6f7420746865206f776e657281525060200191505060405180910390fd5b610a8d81610a98565b50565b600033905090565b600073ffffffffffffffffffffffffffffffffffffffff168173ffffffffffffffffffffffffffffffffffffffff1614151515610b63576040517f08c379a00000000000000000000000000000000000000000000000000000000081526004018080602001828103825260268152602001807f4f776e61626c653a206e6577206f776e657220697320746865207a65726f206181526020017f646472657373000000000000000000000000000000000000000000000000000081525060400191505060405180910390fd5b8073ffffffffffffffffffffffffffffffffffffffff166000809054906101000a900473ffffffffffffffffffffffffffffffffffffffff1673ffffffffffffffffffffffffffffffffffffffff167f8be0079c531659141344cd1fd0a4f28419497f9722a3daafe3b4186f6b6457e060405160405180910390a3806000806101000a81548173ffffffffffffffffffffffffffffffffffffffff021916908373ffffffffffffffffffffffffffffffffffffffff160217905550505600a165627a7a723058205640bfe062ce4bebf1020906c06ed315fdd0fbee05688fd20fbcfabb7607f3720029",
  "source": "pragma solidity >=0.4.24 <=0.5.6;\r\n\r\nimport \"./Ownable.sol\";\r\n\r\ncontract Bebe is Ownable{\r\n    \r\n    event SetRecord(uint256 _maunfacturer,uint256 _name,uint256 _year,uint256 _price);\r\n    \r\n    struct Record{\r\n        uint256 maunfacturer;\r\n        uint256 name;\r\n        uint256 year;\r\n        uint256 price;\r\n    }\r\n    \r\n    mapping (uint256=>uint256) maunfacturerCount;\r\n    \r\n    Record[] private records;\r\n    \r\n    function setRecord(uint256 _maunfacturer,uint256 _name,uint256 _year,uint256 _price) public {\r\n        emit SetRecord(_maunfacturer,_name,_year,_price);\r\n        records.push(Record(_maunfacturer,_name,_year,_price));\r\n        maunfacturerCount[_maunfacturer]++;\r\n    } \r\n    \r\n    function getRecord(uint256 _maunfacturer) public view returns(uint256[] memory,uint256[] memory,uint256[] memory){\r\n        uint256[] memory term1 = new uint256[](maunfacturerCount[_maunfacturer]);\r\n        uint256[] memory term2 = new uint256[](maunfacturerCount[_maunfacturer]);\r\n        uint256[] memory term3 = new uint256[](maunfacturerCount[_maunfacturer]);\r\n        \r\n        uint256 count = 0;\r\n        for(uint i =0;i<records.length;i++){\r\n            if(records[i].maunfacturer == _maunfacturer){\r\n                term1[count] = records[i].name;\r\n                term2[count] = records[i].year;\r\n                term3[count] = records[i].price;\r\n                count++;\r\n            }\r\n        }\r\n        \r\n        return (term1,term2,term3);\r\n    }\r\n    \r\n    function getAllRecord()public view returns(uint256[] memory,uint256[] memory,uint256[] memory){\r\n        uint256[] memory term1 = new uint256[](records.length);\r\n        uint256[] memory term2 = new uint256[](records.length);\r\n        uint256[] memory term3 = new uint256[](records.length);\r\n        \r\n        for(uint i =0;i<records.length;i++){\r\n                term1[i] = records[i].name;\r\n                term2[i] = records[i].year;\r\n                term3[i] = records[i].price;\r\n        }\r\n        \r\n        return (term1,term2,term3);\r\n    }\r\n}",
  "sourcePath": "C:\\Users\\worud\\Desktop\\BEBE\\BlockChain\\contracts\\Bebe.sol",
  "compiler": {
    "name": "solc",
    "version": "0.4.25+commit.59dbf8f1.Emscripten.clang"
  },
  "schemaVersion": "2.0.2",
  "updatedAt": "2019-11-27T08:18:16.361Z"
}